{
  "_format": "hh-sol-artifact-1",
  "contractName": "PaymentGateway",
  "sourceName": "contracts/PaymentGateway.sol",
  "abi": [
    {
      "inputs": [
        {
          "internalType": "address",
          "name": "_paymentToken",
          "type": "address"
        },
        {
          "internalType": "address",
          "name": "_paymentReceipt",
          "type": "address"
        },
        {
          "internalType": "address",
          "name": "_uniswapRouter",
          "type": "address"
        },
        {
          "internalType": "address",
          "name": "_feeAddress",
          "type": "address"
        },
        {
          "internalType": "uint256",
          "name": "_feeBasisPoints",
          "type": "uint256"
        }
      ],
      "stateMutability": "nonpayable",
      "type": "constructor"
    },
    {
      "inputs": [],
      "name": "ReentrancyGuardReentrantCall",
      "type": "error"
    },
    {
      "anonymous": false,
      "inputs": [
        {
          "indexed": true,
          "internalType": "bytes32",
          "name": "paymentId",
          "type": "bytes32"
        },
        {
          "indexed": false,
          "internalType": "uint256",
          "name": "fee",
          "type": "uint256"
        },
        {
          "indexed": false,
          "internalType": "uint256",
          "name": "cashback",
          "type": "uint256"
        },
        {
          "indexed": false,
          "internalType": "string",
          "name": "metadataURI",
          "type": "string"
        }
      ],
      "name": "PaymentCompleted",
      "type": "event"
    },
    {
      "anonymous": false,
      "inputs": [
        {
          "indexed": true,
          "internalType": "bytes32",
          "name": "paymentId",
          "type": "bytes32"
        },
        {
          "indexed": false,
          "internalType": "address",
          "name": "payer",
          "type": "address"
        },
        {
          "indexed": false,
          "internalType": "address",
          "name": "payee",
          "type": "address"
        },
        {
          "indexed": false,
          "internalType": "uint256",
          "name": "amount",
          "type": "uint256"
        }
      ],
      "name": "PaymentCreated",
      "type": "event"
    },
    {
      "inputs": [],
      "name": "TOKEN_PRICE_IN_USD",
      "outputs": [
        {
          "internalType": "uint256",
          "name": "",
          "type": "uint256"
        }
      ],
      "stateMutability": "view",
      "type": "function"
    },
    {
      "inputs": [
        {
          "internalType": "address",
          "name": "usdToken",
          "type": "address"
        },
        {
          "internalType": "uint256",
          "name": "usdAmount",
          "type": "uint256"
        }
      ],
      "name": "buyPAYWithUSD",
      "outputs": [],
      "stateMutability": "nonpayable",
      "type": "function"
    },
    {
      "inputs": [
        {
          "internalType": "uint256",
          "name": "amount",
          "type": "uint256"
        }
      ],
      "name": "calculateCashback",
      "outputs": [
        {
          "internalType": "uint256",
          "name": "",
          "type": "uint256"
        }
      ],
      "stateMutability": "pure",
      "type": "function"
    },
    {
      "inputs": [
        {
          "internalType": "uint256",
          "name": "amount",
          "type": "uint256"
        }
      ],
      "name": "calculateFee",
      "outputs": [
        {
          "internalType": "uint256",
          "name": "",
          "type": "uint256"
        }
      ],
      "stateMutability": "view",
      "type": "function"
    },
    {
      "inputs": [
        {
          "internalType": "bytes32",
          "name": "paymentId",
          "type": "bytes32"
        },
        {
          "internalType": "string",
          "name": "metadataURI",
          "type": "string"
        }
      ],
      "name": "confirmPayment",
      "outputs": [],
      "stateMutability": "nonpayable",
      "type": "function"
    },
    {
      "inputs": [
        {
          "internalType": "uint256",
          "name": "amountIn",
          "type": "uint256"
        },
        {
          "internalType": "address",
          "name": "token1Feed",
          "type": "address"
        },
        {
          "internalType": "address",
          "name": "token2Feed",
          "type": "address"
        }
      ],
      "name": "convertTokenAmount",
      "outputs": [
        {
          "internalType": "uint256",
          "name": "",
          "type": "uint256"
        }
      ],
      "stateMutability": "view",
      "type": "function"
    },
    {
      "inputs": [
        {
          "internalType": "address",
          "name": "payee",
          "type": "address"
        },
        {
          "internalType": "uint256",
          "name": "amount",
          "type": "uint256"
        },
        {
          "internalType": "string",
          "name": "ipfsURI",
          "type": "string"
        }
      ],
      "name": "createPayment",
      "outputs": [],
      "stateMutability": "nonpayable",
      "type": "function"
    },
    {
      "inputs": [],
      "name": "feeAddress",
      "outputs": [
        {
          "internalType": "address",
          "name": "",
          "type": "address"
        }
      ],
      "stateMutability": "view",
      "type": "function"
    },
    {
      "inputs": [],
      "name": "feeBasisPoints",
      "outputs": [
        {
          "internalType": "uint256",
          "name": "",
          "type": "uint256"
        }
      ],
      "stateMutability": "view",
      "type": "function"
    },
    {
      "inputs": [
        {
          "internalType": "address",
          "name": "priceFeed",
          "type": "address"
        }
      ],
      "name": "getLatestPrice",
      "outputs": [
        {
          "internalType": "uint256",
          "name": "",
          "type": "uint256"
        }
      ],
      "stateMutability": "view",
      "type": "function"
    },
    {
      "inputs": [],
      "name": "paymentReceipt",
      "outputs": [
        {
          "internalType": "contract PaymentReceipt",
          "name": "",
          "type": "address"
        }
      ],
      "stateMutability": "view",
      "type": "function"
    },
    {
      "inputs": [],
      "name": "paymentToken",
      "outputs": [
        {
          "internalType": "contract IERC20",
          "name": "",
          "type": "address"
        }
      ],
      "stateMutability": "view",
      "type": "function"
    },
    {
      "inputs": [
        {
          "internalType": "bytes32",
          "name": "",
          "type": "bytes32"
        }
      ],
      "name": "payments",
      "outputs": [
        {
          "internalType": "address",
          "name": "payer",
          "type": "address"
        },
        {
          "internalType": "address",
          "name": "payee",
          "type": "address"
        },
        {
          "internalType": "uint256",
          "name": "amount",
          "type": "uint256"
        },
        {
          "internalType": "bool",
          "name": "isCompleted",
          "type": "bool"
        }
      ],
      "stateMutability": "view",
      "type": "function"
    },
    {
      "inputs": [
        {
          "internalType": "address",
          "name": "tokenIn",
          "type": "address"
        },
        {
          "internalType": "address",
          "name": "tokenOut",
          "type": "address"
        },
        {
          "internalType": "uint256",
          "name": "amountIn",
          "type": "uint256"
        },
        {
          "internalType": "address",
          "name": "priceFeedIn",
          "type": "address"
        },
        {
          "internalType": "address",
          "name": "priceFeedOut",
          "type": "address"
        },
        {
          "internalType": "address",
          "name": "to",
          "type": "address"
        }
      ],
      "name": "swapTokens",
      "outputs": [],
      "stateMutability": "nonpayable",
      "type": "function"
    },
    {
      "inputs": [],
      "name": "uniswapRouter",
      "outputs": [
        {
          "internalType": "contract IUniswapV2Router02",
          "name": "",
          "type": "address"
        }
      ],
      "stateMutability": "view",
      "type": "function"
    },
    {
      "inputs": [
        {
          "internalType": "uint256",
          "name": "newFeeBasisPoints",
          "type": "uint256"
        }
      ],
      "name": "updateFeeBasisPoints",
      "outputs": [],
      "stateMutability": "nonpayable",
      "type": "function"
    }
  ],
  "bytecode": "0x60806040523480156200001157600080fd5b5060405162002a1d38038062002a1d8339818101604052810190620000379190620001fa565b600160008190555084600160006101000a81548173ffffffffffffffffffffffffffffffffffffffff021916908373ffffffffffffffffffffffffffffffffffffffff16021790555083600260006101000a81548173ffffffffffffffffffffffffffffffffffffffff021916908373ffffffffffffffffffffffffffffffffffffffff16021790555082600360006101000a81548173ffffffffffffffffffffffffffffffffffffffff021916908373ffffffffffffffffffffffffffffffffffffffff16021790555081600460006101000a81548173ffffffffffffffffffffffffffffffffffffffff021916908373ffffffffffffffffffffffffffffffffffffffff16021790555080600581905550505050505062000282565b600080fd5b600073ffffffffffffffffffffffffffffffffffffffff82169050919050565b600062000187826200015a565b9050919050565b62000199816200017a565b8114620001a557600080fd5b50565b600081519050620001b9816200018e565b92915050565b6000819050919050565b620001d481620001bf565b8114620001e057600080fd5b50565b600081519050620001f481620001c9565b92915050565b600080600080600060a0868803121562000219576200021862000155565b5b60006200022988828901620001a8565b95505060206200023c88828901620001a8565b94505060406200024f88828901620001a8565b93505060606200026288828901620001a8565b92505060806200027588828901620001e3565b9150509295509295909350565b61278b80620002926000396000f3fe608060405234801561001057600080fd5b50600436106101005760003560e01c80635eb89a491161009757806399a5d7471161006657806399a5d747146102b0578063b8606eef146102e0578063e2f69ab0146102fe578063f47c48cb1461031c57610100565b80635eb89a491461023c5780636288d12e14610258578063735de9f71461027457806382d5e7b81461029257610100565b80633013ce29116100d35780633013ce29146101b457806336888411146101d2578063412753581461020257806357802c7d1461022057610100565b80630716326d1461010557806307a22aa01461013857806316345f181461016857806317560f2914610198575b600080fd5b61011f600480360381019061011a919061154e565b610338565b60405161012f94939291906115f0565b60405180910390f35b610152600480360381019061014d9190611661565b6103b5565b60405161015f919061168e565b60405180910390f35b610182600480360381019061017d91906116d5565b61043a565b60405161018f919061168e565b60405180910390f35b6101b260048036038101906101ad9190611848565b610504565b005b6101bc610938565b6040516101c99190611916565b60405180910390f35b6101ec60048036038101906101e79190611931565b61095e565b6040516101f9919061168e565b60405180910390f35b61020a61099b565b6040516102179190611984565b60405180910390f35b61023a60048036038101906102359190611661565b6109c1565b005b6102566004803603810190610251919061199f565b610a9f565b005b610272600480360381019061026d91906119fb565b610f48565b005b61027c611211565b6040516102899190611aa9565b60405180910390f35b61029a611237565b6040516102a7919061168e565b60405180910390f35b6102ca60048036038101906102c59190611661565b611243565b6040516102d7919061168e565b60405180910390f35b6102e8611267565b6040516102f5919061168e565b60405180910390f35b61030661126d565b6040516103139190611ae5565b60405180910390f35b61033660048036038101906103319190611b00565b611293565b005b60066020528060005260406000206000915090508060000160009054906101000a900473ffffffffffffffffffffffffffffffffffffffff16908060010160009054906101000a900473ffffffffffffffffffffffffffffffffffffffff16908060020154908060030160009054906101000a900460ff16905084565b600068056bc75e2d631000008210156103e85760646001836103d79190611b6f565b6103e19190611be0565b9050610435565b683635c9adc5dea000008210156104195760646002836104089190611b6f565b6104129190611be0565b9050610435565b60646003836104289190611b6f565b6104329190611be0565b90505b919050565b60008082905060008173ffffffffffffffffffffffffffffffffffffffff1663feaf968c6040518163ffffffff1660e01b815260040160a060405180830381865afa15801561048d573d6000803e3d6000fd5b505050506040513d601f19601f820116820180604052508101906104b19190611c9e565b505050915050600081136104fa576040517f08c379a00000000000000000000000000000000000000000000000000000000081526004016104f190611d76565b60405180910390fd5b8092505050919050565b61050c6114b4565b6000821161054f576040517f08c379a000000000000000000000000000000000000000000000000000000000815260040161054690611de2565b60405180910390fd5b600160009054906101000a900473ffffffffffffffffffffffffffffffffffffffff1673ffffffffffffffffffffffffffffffffffffffff166323b872dd3330856040518463ffffffff1660e01b81526004016105ae93929190611e02565b6020604051808303816000875af11580156105cd573d6000803e3d6000fd5b505050506040513d601f19601f820116820180604052508101906105f19190611e65565b610630576040517f08c379a000000000000000000000000000000000000000000000000000000000815260040161062790611ede565b60405180910390fd5b81600160009054906101000a900473ffffffffffffffffffffffffffffffffffffffff1673ffffffffffffffffffffffffffffffffffffffff1663dd62ed3e33306040518363ffffffff1660e01b815260040161068e929190611efe565b602060405180830381865afa1580156106ab573d6000803e3d6000fd5b505050506040513d601f19601f820116820180604052508101906106cf9190611f27565b1015610710576040517f08c379a000000000000000000000000000000000000000000000000000000000815260040161070790611fa0565b60405180910390fd5b600033844284604051602001610729949392919061209a565b60405160208183030381529060405280519060200120905060405180608001604052803373ffffffffffffffffffffffffffffffffffffffff1681526020018573ffffffffffffffffffffffffffffffffffffffff168152602001848152602001600015158152506006600083815260200190815260200160002060008201518160000160006101000a81548173ffffffffffffffffffffffffffffffffffffffff021916908373ffffffffffffffffffffffffffffffffffffffff16021790555060208201518160010160006101000a81548173ffffffffffffffffffffffffffffffffffffffff021916908373ffffffffffffffffffffffffffffffffffffffff1602179055506040820151816002015560608201518160030160006101000a81548160ff021916908315150217905550905050600260009054906101000a900473ffffffffffffffffffffffffffffffffffffffff1673ffffffffffffffffffffffffffffffffffffffff1663d204c45e33846040518363ffffffff1660e01b81526004016108bc92919061211d565b600060405180830381600087803b1580156108d657600080fd5b505af11580156108ea573d6000803e3d6000fd5b50505050807fbfeae722deab5b34e41d6867882cfdbe3e53c6fa2701c3d62fe607cfb90482ce33868660405161092293929190611e02565b60405180910390a2506109336114fa565b505050565b600160009054906101000a900473ffffffffffffffffffffffffffffffffffffffff1681565b60008061096a8461043a565b905060006109778461043a565b90508082876109869190611b6f565b6109909190611be0565b925050509392505050565b600460009054906101000a900473ffffffffffffffffffffffffffffffffffffffff1681565b600460009054906101000a900473ffffffffffffffffffffffffffffffffffffffff1673ffffffffffffffffffffffffffffffffffffffff163373ffffffffffffffffffffffffffffffffffffffff1614610a51576040517f08c379a0000000000000000000000000000000000000000000000000000000008152600401610a48906121bf565b60405180910390fd5b6064811115610a95576040517f08c379a0000000000000000000000000000000000000000000000000000000008152600401610a8c9061222b565b60405180910390fd5b8060058190555050565b610aa76114b4565b60006006600084815260200190815260200160002090508060010160009054906101000a900473ffffffffffffffffffffffffffffffffffffffff1673ffffffffffffffffffffffffffffffffffffffff163373ffffffffffffffffffffffffffffffffffffffff1614610b50576040517f08c379a0000000000000000000000000000000000000000000000000000000008152600401610b4790612297565b60405180910390fd5b8060030160009054906101000a900460ff1615610ba2576040517f08c379a0000000000000000000000000000000000000000000000000000000008152600401610b9990612303565b60405180910390fd5b6000610bb18260020154611243565b90506000610bc283600201546103b5565b90506000828460020154610bd69190612323565b9050600160009054906101000a900473ffffffffffffffffffffffffffffffffffffffff1673ffffffffffffffffffffffffffffffffffffffff1663a9059cbb8560010160009054906101000a900473ffffffffffffffffffffffffffffffffffffffff16836040518363ffffffff1660e01b8152600401610c59929190612357565b6020604051808303816000875af1158015610c78573d6000803e3d6000fd5b505050506040513d601f19601f82011682018060405250810190610c9c9190611e65565b610cdb576040517f08c379a0000000000000000000000000000000000000000000000000000000008152600401610cd2906123cc565b60405180910390fd5b600160009054906101000a900473ffffffffffffffffffffffffffffffffffffffff1673ffffffffffffffffffffffffffffffffffffffff1663a9059cbb600460009054906101000a900473ffffffffffffffffffffffffffffffffffffffff16856040518363ffffffff1660e01b8152600401610d5a929190612357565b6020604051808303816000875af1158015610d79573d6000803e3d6000fd5b505050506040513d601f19601f82011682018060405250810190610d9d9190611e65565b610ddc576040517f08c379a0000000000000000000000000000000000000000000000000000000008152600401610dd390612438565b60405180910390fd5b600160009054906101000a900473ffffffffffffffffffffffffffffffffffffffff1673ffffffffffffffffffffffffffffffffffffffff1663a9059cbb8560000160009054906101000a900473ffffffffffffffffffffffffffffffffffffffff16846040518363ffffffff1660e01b8152600401610e5d929190612357565b6020604051808303816000875af1158015610e7c573d6000803e3d6000fd5b505050506040513d601f19601f82011682018060405250810190610ea09190611e65565b610edf576040517f08c379a0000000000000000000000000000000000000000000000000000000008152600401610ed6906124a4565b60405180910390fd5b60018460030160006101000a81548160ff021916908315150217905550857f6413641441f0fcca488d5604a0d7b8c9594d77f901967951f80ad9b2780e3ef6848488604051610f30939291906124c4565b60405180910390a250505050610f446114fa565b5050565b6000610f5585858561095e565b90506000600267ffffffffffffffff811115610f7457610f7361171d565b5b604051908082528060200260200182016040528015610fa25781602001602082028036833780820191505090505b5090508781600081518110610fba57610fb9612502565b5b602002602001019073ffffffffffffffffffffffffffffffffffffffff16908173ffffffffffffffffffffffffffffffffffffffff1681525050868160018151811061100957611008612502565b5b602002602001019073ffffffffffffffffffffffffffffffffffffffff16908173ffffffffffffffffffffffffffffffffffffffff16815250508773ffffffffffffffffffffffffffffffffffffffff166323b872dd3330896040518463ffffffff1660e01b815260040161108093929190611e02565b6020604051808303816000875af115801561109f573d6000803e3d6000fd5b505050506040513d601f19601f820116820180604052508101906110c39190611e65565b508773ffffffffffffffffffffffffffffffffffffffff1663095ea7b3600360009054906101000a900473ffffffffffffffffffffffffffffffffffffffff16886040518363ffffffff1660e01b8152600401611121929190612357565b6020604051808303816000875af1158015611140573d6000803e3d6000fd5b505050506040513d601f19601f820116820180604052508101906111649190611e65565b50600360009054906101000a900473ffffffffffffffffffffffffffffffffffffffff1673ffffffffffffffffffffffffffffffffffffffff16635c11d7958784848761012c426111b59190612531565b6040518663ffffffff1660e01b81526004016111d5959493929190612623565b600060405180830381600087803b1580156111ef57600080fd5b505af1158015611203573d6000803e3d6000fd5b505050505050505050505050565b600360009054906101000a900473ffffffffffffffffffffffffffffffffffffffff1681565b670214e8348c4f000081565b6000612710600554836112569190611b6f565b6112609190611be0565b9050919050565b60055481565b600260009054906101000a900473ffffffffffffffffffffffffffffffffffffffff1681565b61129b6114b4565b600081116112de576040517f08c379a00000000000000000000000000000000000000000000000000000000081526004016112d590611de2565b60405180910390fd5b8173ffffffffffffffffffffffffffffffffffffffff166323b872dd3330846040518463ffffffff1660e01b815260040161131b93929190611e02565b6020604051808303816000875af115801561133a573d6000803e3d6000fd5b505050506040513d601f19601f8201168201806040525081019061135e9190611e65565b61139d576040517f08c379a0000000000000000000000000000000000000000000000000000000008152600401611394906126c9565b60405180910390fd5b6000670214e8348c4f0000670de0b6b3a7640000836113bc9190611b6f565b6113c69190611be0565b9050600160009054906101000a900473ffffffffffffffffffffffffffffffffffffffff1673ffffffffffffffffffffffffffffffffffffffff1663a9059cbb33836040518363ffffffff1660e01b8152600401611425929190612357565b6020604051808303816000875af1158015611444573d6000803e3d6000fd5b505050506040513d601f19601f820116820180604052508101906114689190611e65565b6114a7576040517f08c379a000000000000000000000000000000000000000000000000000000000815260040161149e90612735565b60405180910390fd5b506114b06114fa565b5050565b6002600054036114f0576040517f3ee5aeb500000000000000000000000000000000000000000000000000000000815260040160405180910390fd5b6002600081905550565b6001600081905550565b6000604051905090565b600080fd5b600080fd5b6000819050919050565b61152b81611518565b811461153657600080fd5b50565b60008135905061154881611522565b92915050565b6000602082840312156115645761156361150e565b5b600061157284828501611539565b91505092915050565b600073ffffffffffffffffffffffffffffffffffffffff82169050919050565b60006115a68261157b565b9050919050565b6115b68161159b565b82525050565b6000819050919050565b6115cf816115bc565b82525050565b60008115159050919050565b6115ea816115d5565b82525050565b600060808201905061160560008301876115ad565b61161260208301866115ad565b61161f60408301856115c6565b61162c60608301846115e1565b95945050505050565b61163e816115bc565b811461164957600080fd5b50565b60008135905061165b81611635565b92915050565b6000602082840312156116775761167661150e565b5b60006116858482850161164c565b91505092915050565b60006020820190506116a360008301846115c6565b92915050565b6116b28161159b565b81146116bd57600080fd5b50565b6000813590506116cf816116a9565b92915050565b6000602082840312156116eb576116ea61150e565b5b60006116f9848285016116c0565b91505092915050565b600080fd5b600080fd5b6000601f19601f8301169050919050565b7f4e487b7100000000000000000000000000000000000000000000000000000000600052604160045260246000fd5b6117558261170c565b810181811067ffffffffffffffff821117156117745761177361171d565b5b80604052505050565b6000611787611504565b9050611793828261174c565b919050565b600067ffffffffffffffff8211156117b3576117b261171d565b5b6117bc8261170c565b9050602081019050919050565b82818337600083830152505050565b60006117eb6117e684611798565b61177d565b90508281526020810184848401111561180757611806611707565b5b6118128482856117c9565b509392505050565b600082601f83011261182f5761182e611702565b5b813561183f8482602086016117d8565b91505092915050565b6000806000606084860312156118615761186061150e565b5b600061186f868287016116c0565b93505060206118808682870161164c565b925050604084013567ffffffffffffffff8111156118a1576118a0611513565b5b6118ad8682870161181a565b9150509250925092565b6000819050919050565b60006118dc6118d76118d28461157b565b6118b7565b61157b565b9050919050565b60006118ee826118c1565b9050919050565b6000611900826118e3565b9050919050565b611910816118f5565b82525050565b600060208201905061192b6000830184611907565b92915050565b60008060006060848603121561194a5761194961150e565b5b60006119588682870161164c565b9350506020611969868287016116c0565b925050604061197a868287016116c0565b9150509250925092565b600060208201905061199960008301846115ad565b92915050565b600080604083850312156119b6576119b561150e565b5b60006119c485828601611539565b925050602083013567ffffffffffffffff8111156119e5576119e4611513565b5b6119f18582860161181a565b9150509250929050565b60008060008060008060c08789031215611a1857611a1761150e565b5b6000611a2689828a016116c0565b9650506020611a3789828a016116c0565b9550506040611a4889828a0161164c565b9450506060611a5989828a016116c0565b9350506080611a6a89828a016116c0565b92505060a0611a7b89828a016116c0565b9150509295509295509295565b6000611a93826118e3565b9050919050565b611aa381611a88565b82525050565b6000602082019050611abe6000830184611a9a565b92915050565b6000611acf826118e3565b9050919050565b611adf81611ac4565b82525050565b6000602082019050611afa6000830184611ad6565b92915050565b60008060408385031215611b1757611b1661150e565b5b6000611b25858286016116c0565b9250506020611b368582860161164c565b9150509250929050565b7f4e487b7100000000000000000000000000000000000000000000000000000000600052601160045260246000fd5b6000611b7a826115bc565b9150611b85836115bc565b9250828202611b93816115bc565b91508282048414831517611baa57611ba9611b40565b5b5092915050565b7f4e487b7100000000000000000000000000000000000000000000000000000000600052601260045260246000fd5b6000611beb826115bc565b9150611bf6836115bc565b925082611c0657611c05611bb1565b5b828204905092915050565b600069ffffffffffffffffffff82169050919050565b611c3081611c11565b8114611c3b57600080fd5b50565b600081519050611c4d81611c27565b92915050565b6000819050919050565b611c6681611c53565b8114611c7157600080fd5b50565b600081519050611c8381611c5d565b92915050565b600081519050611c9881611635565b92915050565b600080600080600060a08688031215611cba57611cb961150e565b5b6000611cc888828901611c3e565b9550506020611cd988828901611c74565b9450506040611cea88828901611c89565b9350506060611cfb88828901611c89565b9250506080611d0c88828901611c3e565b9150509295509295909350565b600082825260208201905092915050565b7f496e76616c696420707269636520646174610000000000000000000000000000600082015250565b6000611d60601283611d19565b9150611d6b82611d2a565b602082019050919050565b60006020820190508181036000830152611d8f81611d53565b9050919050565b7f416d6f756e74206d757374206265203e20300000000000000000000000000000600082015250565b6000611dcc601283611d19565b9150611dd782611d96565b602082019050919050565b60006020820190508181036000830152611dfb81611dbf565b9050919050565b6000606082019050611e1760008301866115ad565b611e2460208301856115ad565b611e3160408301846115c6565b949350505050565b611e42816115d5565b8114611e4d57600080fd5b50565b600081519050611e5f81611e39565b92915050565b600060208284031215611e7b57611e7a61150e565b5b6000611e8984828501611e50565b91505092915050565b7f5472616e73666572206661696c65640000000000000000000000000000000000600082015250565b6000611ec8600f83611d19565b9150611ed382611e92565b602082019050919050565b60006020820190508181036000830152611ef781611ebb565b9050919050565b6000604082019050611f1360008301856115ad565b611f2060208301846115ad565b9392505050565b600060208284031215611f3d57611f3c61150e565b5b6000611f4b84828501611c89565b91505092915050565b7f496e73756666696369656e7420616c6c6f77616e636500000000000000000000600082015250565b6000611f8a601683611d19565b9150611f9582611f54565b602082019050919050565b60006020820190508181036000830152611fb981611f7d565b9050919050565b60008160601b9050919050565b6000611fd882611fc0565b9050919050565b6000611fea82611fcd565b9050919050565b612002611ffd8261159b565b611fdf565b82525050565b6000819050919050565b61202361201e826115bc565b612008565b82525050565b600081519050919050565b600081905092915050565b60005b8381101561205d578082015181840152602081019050612042565b60008484015250505050565b600061207482612029565b61207e8185612034565b935061208e81856020860161203f565b80840191505092915050565b60006120a68287611ff1565b6014820191506120b68286611ff1565b6014820191506120c68285612012565b6020820191506120d68284612069565b915081905095945050505050565b60006120ef82612029565b6120f98185611d19565b935061210981856020860161203f565b6121128161170c565b840191505092915050565b600060408201905061213260008301856115ad565b818103602083015261214481846120e4565b90509392505050565b7f4f6e6c7920666565416464726573732063616e2075706461746520746865206660008201527f6565000000000000000000000000000000000000000000000000000000000000602082015250565b60006121a9602283611d19565b91506121b48261214d565b604082019050919050565b600060208201905081810360008301526121d88161219c565b9050919050565b7f46656520746f6f20686967680000000000000000000000000000000000000000600082015250565b6000612215600c83611d19565b9150612220826121df565b602082019050919050565b6000602082019050818103600083015261224481612208565b9050919050565b7f4e6f7420617574686f72697a6564000000000000000000000000000000000000600082015250565b6000612281600e83611d19565b915061228c8261224b565b602082019050919050565b600060208201905081810360008301526122b081612274565b9050919050565b7f5061796d656e7420616c726561647920636f6d706c6574656400000000000000600082015250565b60006122ed601983611d19565b91506122f8826122b7565b602082019050919050565b6000602082019050818103600083015261231c816122e0565b9050919050565b600061232e826115bc565b9150612339836115bc565b925082820390508181111561235157612350611b40565b5b92915050565b600060408201905061236c60008301856115ad565b61237960208301846115c6565b9392505050565b7f5061796d656e74207472616e73666572206661696c6564000000000000000000600082015250565b60006123b6601783611d19565b91506123c182612380565b602082019050919050565b600060208201905081810360008301526123e5816123a9565b9050919050565b7f466565207472616e73666572206661696c656400000000000000000000000000600082015250565b6000612422601383611d19565b915061242d826123ec565b602082019050919050565b6000602082019050818103600083015261245181612415565b9050919050565b7f436173686261636b207472616e73666572206661696c65640000000000000000600082015250565b600061248e601883611d19565b915061249982612458565b602082019050919050565b600060208201905081810360008301526124bd81612481565b9050919050565b60006060820190506124d960008301866115c6565b6124e660208301856115c6565b81810360408301526124f881846120e4565b9050949350505050565b7f4e487b7100000000000000000000000000000000000000000000000000000000600052603260045260246000fd5b600061253c826115bc565b9150612547836115bc565b925082820190508082111561255f5761255e611b40565b5b92915050565b600081519050919050565b600082825260208201905092915050565b6000819050602082019050919050565b61259a8161159b565b82525050565b60006125ac8383612591565b60208301905092915050565b6000602082019050919050565b60006125d082612565565b6125da8185612570565b93506125e583612581565b8060005b838110156126165781516125fd88826125a0565b9750612608836125b8565b9250506001810190506125e9565b5085935050505092915050565b600060a08201905061263860008301886115c6565b61264560208301876115c6565b818103604083015261265781866125c5565b905061266660608301856115ad565b61267360808301846115c6565b9695505050505050565b7f555344207472616e73666572206661696c656400000000000000000000000000600082015250565b60006126b3601383611d19565b91506126be8261267d565b602082019050919050565b600060208201905081810360008301526126e2816126a6565b9050919050565b7f504159207472616e73666572206661696c656400000000000000000000000000600082015250565b600061271f601383611d19565b915061272a826126e9565b602082019050919050565b6000602082019050818103600083015261274e81612712565b905091905056fea264697066735822122025817c88790c97ae12bd8e37c2cd9b7fd85f6ababae188abd3aaac4ae87238d664736f6c63430008140033",
  "linkReferences": {},
  "deployedLinkReferences": {}
}